:0D08910048656C6C6F2C20506176616E0024
:0E08830012084F7BFF7A08799112082A80FE36
:10084F007F381208AA7F0C1208AA7F011208AA7F0C
:0B085F00147E0012080A7F800208AA25
:0A080000C2B18FA0D2B27F027E00C9
:10080A00E4FDFCC3ED9FEC9E5015E4FBFA0BBB0024
:0F081A00010ABA04F8BBFBF50DBD00010C80E428
:0108290022AC
:0A08AA00C2B0120800C2B202080A30
:0A08B400D2B0120800C2B202080A16
:10082A008B088A09890AAB08AA09A90A12086A6008
:10083A0013050AE50A7002050914F912086AFF127B
:05084A0008B480E22269
:0300000002089E55
:0C089E00787FE4F6D8FD75810A0208831B
:10086A00BB010689828A83E0225002E722BBFE028C
:09087A00E32289828A83E49322BF
:00000001FF
