:0B0C950053504920436F6D6D752E0019
:100ACC00D2B6C2B3120BAA7BFF7A0C7995120B85A6
:100ADC007D427F237E01120BE0120C7A7F237E0174
:100AEC00120C138F217FC0120CABAF21120C438060
:010AFC00FEFB
:100BAA007F38120CAB7F0C120CAB7F01120CAB7F9F
:0B0BBA00147E00120B657F80020CAB64
:0A0B5B00C2B18FA0D2B27F027E006B
:100B6500E4FDFCC3ED9FEC9E5015E4FBFA0BBB00C6
:0F0B7500010ABA04F8BBFBF50DBD00010C80E4CA
:010B8400224E
:0A0CAB00C2B0120B5BC2B2020B656F
:070C3C0075F00A842430FF6B
:0A0C4300D2B0120B5BC2B2020B65C7
:100B85008B228A238924AB22AA23A92412088760F1
:100B9500130524E5247002052314F9120887FF12B2
:050BA5000C4380E22278
:1009A5008F258D26A9037FC0120CABE525120C3CC3
:1009B500E52575F00A84E5F02430FF120C437F3AF3
:1009C500120C43E526120C3CE52675F00A84E5F089
:1009D5002430FF120C437F3A120C43E9120C3CE918
:0C09E50075F00A84E5F02430FF020C439A
:100BC5004C454420537461747573004C4544204F63
:0B0BD5004E20004C4544204F464600D7
:100A9A007F01120CAB7BFF7A0B79C5120B85C290D2
:100AAA007FC0120CAB20910DD2907BFF7A0B79D0CC
:100ABA00120B8580EBC2907BFF7A0B79D8120B85DB
:020ACA0080DECC
:10080000D292D291D290D296D295D294D293C290D3
:10081000D292D2912093047F3180132094047F34AC
:10082000800C2095047F3780052096057F2A120CC6
:1008300043D290C291D292D2902093047F328013FF
:100840002094047F35800C2095047F388005209605
:10085000057F30120C43D291C292D291D290209354
:10086000047F3380132094047F36800C2095047F0E
:100870003980052096057F23120C43D2927F1E7E7D
:0708800000120B65020800E5
:060BFB0092B47F057E00AC
:100C0100E4FDFCC3ED9FEC9E50070DBD00010C807F
:010C1100F2F0
:010C120022BF
:0F0C4D00D2B3D2B4120BFDC2B4120C01C2B32247
:0F0C5C00C2B3C2B4120BFDD2B3120C01D2B42238
:020A6700AB07DB
:100A6900E4FAEB30E703D38001C3120BFBD2B312D4
:100A79000C01C2B3EB25E0FB0ABA08E6D2B4D2B343
:100A8900120BFDA2B4E433C2B370037F01227F00CD
:010A9900223A
:100A3100E4FBD2B4FAD2B3120BFDEB25E0FB30B4E8
:100A410003430301C2B3120BFD0ABA08E8300003E5
:100A5100C38001D3120BFBD2B3120C01C2B3D2B4C7
:050A6100120C01AF03BF
:010A6600226D
:0809F1008F118B128A13891487
:1009F900120C4D7FA0120A67AF11120A67E4F516AF
:100A0900E516C395155017AB12AA13A914851682BA
:100A19007583001208A0FF120A67051680E2120CFE
:080A29005C7FF47E01020C0168
:080955008F178B188A19891A0B
:10095D00120C4D7FA0120A67AF17120A67120C4DC9
:10096D007FA1120A67E4F51CE51CC3951B5026E513
:10097D001B14FFE51CC39F50028001C39200120A95
:10098D0031AB18AA19A91A851C82758300EF1208BC
:08099D00DF051C80D3020C5C95
:100C2900EF75F00A84C454F0FEEF75F00A84E5F01C
:030C39004EFF2249
:0F0C6B00EFC4540F75F00AA4FEEF540F2EFF22B2
:100B2D008F1D8D1E8B1F120C4D7FD0120A67E4FF97
:100B3D00120A67AF1F120C29120A67AF1E120C2979
:0E0B4D00120A67AF1D120C29120A67020C5C17
:100901008B088A09890A120C4D7FD0120A67E4FF0D
:10091100120A67120C4D7FD1120A67D200120A31F6
:10092100120C6BAB0EAA0FA910EF1208CDD2001258
:100931000A31120C6BAB0BAA0CA90DEF1208CDC238
:1009410000120A31120C6BAB08AA09A90AEF1208AE
:04095100CD020C5C6B
:0E0C7A00E4FFFE0FBF00010EBE13F8BF88F5A9
:010C88002249
:0A0AFD00120B07AF03120B07AF0442
:100B0700E4FEFDEF30E703D38001C392B4D2B3EE26
:100B170025E0FE30B503430601C2B3EF25E0FF0D24
:050B2700BD08E0AF066F
:010B2C0022A6
:030CB500C2B622A2
:030CB800D2B6228F
:0B0CA000120CB57F06120B07020CB807
:040BE000AA06AC05B0
:100BE400EAF9EFFB120CA0120CB57F02120B07AF4F
:070BF40001120AFD020CB81A
:020C1300AC062D
:100C1500ECFBEFFC120CB57F03120AFDE4FF120B8F
:040C250007020CB8FE
:03000000020C8966
:0C0C8900787FE4F6D8FD758126020ACCC5
:10088700BB010689828A83E0225002E722BBFE026F
:09089700E32289828A83E49322A2
:1008A000BB010CE58229F582E5833AF583E022500D
:1008B00006E92582F8E622BBFE06E92582F8E22257
:0D08C000E58229F582E5833AF583E4932271
:1008CD00BB010689828A83F0225002F722BBFE010A
:0208DD00F32204
:1008DF00F8BB010DE58229F582E5833AF583E8F04F
:1008EF00225006E92582C8F622BBFE05E92582C8FB
:0208FF00F222E3
:00000001FF
