:100BB7004932432050726F746F636F6C20522F5706
:0C0BC700200048656C6C6F576F726C006A
:1009E50078237C007D007BFF7A0B79C97E007F0A26
:1009F5001208D0120BD37BFF7A0B79B7120B927BBF
:100A0500007A007923753A08E4FF120A8D7B007A93
:100A150000792D753A08E4FF120A3D7FC0120C4B90
:100A2500E4F522742D2522F8E6FF120C550522E582
:080A350022C3940840ED80FE8D
:100BD3007F38120C4B7F0C120C4B7F01120C4B7F96
:0B0BE300147E00120B727F80020C4B8E
:0A0B6800C2B18FA0D2B27F027E005E
:100B7200E4FDFCC3ED9FEC9E5015E4FBFA0BBB00B9
:0F0B8200010ABA04F8BBFBF50DBD00010C80E4BD
:010B91002241
:0A0C4B00C2B0120B68C2B2020B72B5
:0A0C5500D2B0120B68C2B2020B729B
:100B92008B368A378938AB36AA37A9381208F660FD
:100BA200130538E5387002053714F91208F6FF12FA
:050BB2000C5580E22259
:100BEE004C454420537461747573004C4544204F3A
:0B0BFE004E20004C4544204F464600AE
:100B36007F01120C4B7BFF7A0B79EE120B92C2905F
:100B46007FC0120C4B20910DD2907BFF7A0B79F966
:100B5600120B9280EBC2907BFF7A0C7901120B92FA
:020B660080DE2F
:10095E00D292D291D290D296D295D294D293C29074
:10096E00D292D2912093047F3180132094047F344D
:10097E00800C2095047F3780052096057F2A120C67
:10098E0055D290C291D292D2902093047F3280138E
:10099E002094047F35800C2095047F3880052096A6
:1009AE00057F30120C55D291C292D291D2902093E3
:1009BE00047F3380132094047F36800C2095047FAF
:1009CE003980052096057F23120C55D2927F1E7E0C
:0709DE0000120B7202095E1A
:060C090092B47F057E009D
:100C0F00E4FDFCC3ED9FEC9E50070DBD00010C8071
:010C1F00F2E2
:010C200022B1
:0F0C2100D2B3D2B4120C0BC2B4120C0FC2B32256
:0F0C3000C2B3C2B4120C0BD2B3120C0FD2B42247
:020B0300AB073E
:100B0500E4FAEB30E703D38001C3120C09D2B31228
:100B15000C0FC2B3EB25E0FB0ABA08E6D2B4D2B398
:100B2500120C0BA2B4E433C2B370037F01227F0021
:010B3500229D
:100ACD00E4FBD2B4FAD2B3120C0BEB25E0FB30B43D
:100ADD0003430301C2B3120C0B0ABA08E83000033A
:100AED00C38001D3120C09D2B3120C0FC2B3D2B40E
:050AFD00120C0FAF0315
:010B020022D0
:080A8D008F368B378A38893956
:100A9500120C217FA0120B03AF36120B03E4F53BBA
:100AA500E53BC3953A5017AB37AA38A939853B8240
:100AB50075830012090FFF120B03053B80E2120C30
:080AC500307FF47E01020C0FEA
:080A3D008F368B378A388939A6
:100A4500120C217FA0120B03AF36120B03120C21DF
:100A55007FA1120B03E4F53BE53BC3953A5026E530
:100A65003A14FFE53BC39F50028001C39200120A6E
:100A7500CDAB37AA38A939853B82758300EF1209BA
:080A85003C053B80D3020C305C
:03000000020C3FB0
:0C0C3F00787FE4F6D8FD75813B0209E5E2
:10080000E709F608DFFA8046E709F208DFFA803EDA
:1008100088828C83E709F0A3DFFA8032E309F608C7
:10082000DFFA8078E309F208DFFA807088828C832F
:10083000E309F0A3DFFA806489828A83E0A3F608E3
:10084000DFFA805889828A83E0A3F208DFFA804CBD
:1008500080D280FA80C680D4806980F28033801094
:1008600080A680EA809A80A880DA80E280CA8033FD
:1008700089828A83ECFAE493A3C8C582C8CCC58375
:10088000CCF0A3C8C582C8CCC583CCDFE9DEE78045
:100890000D89828A83E493A3F608DFF9ECFAA9F0C4
:1008A000EDFB2289828A83ECFAE0A3C8C582C8CC1A
:1008B000C583CCF0A3C8C582C8CCC583CCDFEADE33
:1008C000E880DB89828A83E493A3F208DFF980CC95
:1008D00088F0EF60010E4E60C388F0ED2402B4048E
:1008E0000050B9F582EB2402B4040050AF23234535
:0608F00082239008507302
:1008F600BB010689828A83E0225002E722BBFE0200
:09090600E32289828A83E4932232
:10090F00BB010CE58229F582E5833AF583E022509D
:10091F0006E92582F8E622BBFE06E92582F8E222E7
:0D092F00E58229F582E5833AF583E4932201
:10093C00F8BB010DE58229F582E5833AF583E8F0F1
:10094C00225006E92582C8F622BBFE05E92582C89D
:02095C00F22285
:00000001FF
