:100A10004932432050524F544F434F4C20522F578E
:010A200000D5
:100887001209A77BFF7A0A7910120982120A217FBF
:10089700A0120934E4FF1209347F41120934120A05
:1008A700307FF47E011209E5120A217FA012093474
:1008B700E4FF120934120A217FA112093412095BDD
:1008C7008F087FC0120A4BAF08120A55120A3080F0
:0108D700FE22
:1009A7007F38120A4B7F0C120A4B7F01120A4B7FCA
:0B09B700147E001209147F80020A4B1E
:0A090A00C2B18FA0D2B27F027E00BE
:10091400E4FDFCC3ED9FEC9E5015E4FBFA0BBB0019
:0F092400010ABA04F8BBFBF50DBD00010C80E41D
:0109330022A1
:0A0A4B00C2B012090AC2B202091477
:0A0A5500D2B012090AC2B20209145D
:100982008B098A0A890BAB09AA0AA90B1209F7601B
:1009920013050BE50B7002050A14F91209F7FF1291
:0509A2000A5580E2226D
:1009C2004C454420537461747573004C4544204F68
:0B09D2004E20004C4544204F464600DC
:1008D8007F01120A4B7BFF7A0979C2120982C29002
:1008E8007FC0120A4B20910DD2907BFF7A0979CDF7
:1008F80012098280EBC2907BFF7A0979D5120982AE
:0209080080DE8F
:10080000D292D291D290D296D295D294D293C290D3
:10081000D292D2912093047F3180132094047F34AC
:10082000800C2095047F3780052096057F2A120AC8
:1008300055D290C291D292D2902093047F328013ED
:100840002094047F35800C2095047F388005209605
:10085000057F30120A55D291C292D291D290209344
:10086000047F3380132094047F36800C2095047F0E
:100870003980052096057F23120A55D2927F1E7E6D
:070880000012091402080038
:0809DD00D2B4D2B37F057E0005
:1009E500E4FDFCC3ED9FEC9E50070DBD00010C809E
:0109F500F20F
:0109F60022DE
:0F0A2100D2B3D2B41209E1C2B41209E5C2B322B2
:0F0A3000C2B3C2B41209E1D2B31209E5D2B422A3
:02093400AB070F
:10093600E4FAEB30E703D38001C392B41209DFC2B5
:10094600B3EB25E0FB0ABA08E91209DD20B4FD1273
:0409560009E1C2B33E
:01095A00227A
:10095B00E4FBFA1209E1D2B31209E5A2B49200EB5F
:10096B0025E0FBA200E4334203C2B30ABA08E41247
:06097B0009DDC2B3AF0369
:010981002253
:03000000020A3FB2
:0C0A3F00787FE4F6D8FD7581200208875E
:1009F700BB010689828A83E0225002E722BBFE02FE
:090A0700E32289828A83E4932230
:00000001FF
