:0D0A37004932432050726F746F636F6C0082
:100887001209B27F80120A507BFF7A0A7937120960
:100897008D120A197FA012090FE4FF12090F7F4179
:1008A70012090F120A287FF47E01120A07120A1989
:1008B7007FA012090FE4FF12090F120A197FA11274
:1008C700090F1209648F08120A287FC0120A50AF55
:0608D70008120A5A80FE1F
:1009B2007F38120A507F0C120A507F01120A507FB0
:0B09C200147E001209447F80020A50DE
:0A093A00C2B18FA0D2B27F027E008E
:10094400E4FDFCC3ED9FEC9E5015E4FBFA0BBB00E9
:0F095400010ABA04F8BBFBF50DBD00010C80E4ED
:010963002271
:0A0A5000C2B012093AC2B202094412
:0A0A5A00D2B012093AC2B2020944F8
:10098D008B098A0A890BAB09AA0AA90B1209E8601F
:10099D0013050BE50B7002050A14F91209E8FF1295
:0509AD000A5A80E2225D
:1009CD004C454420537461747573004C4544204F5D
:0B09DD004E20004C4544204F464600D1
:1008DD007F01120A507BFF7A0979CD12098DC290E2
:1008ED007FC0120A5020910DD2907BFF7A0979D8E2
:1008FD0012098D80EBC2907BFF7A0979E012098D88
:02090D0080DE8A
:10080000D292D291D290D296D295D294D293C290D3
:10081000D292D2912093047F3180132094047F34AC
:10082000800C2095047F3780052096057F2A120AC8
:100830005AD290C291D292D2902093047F328013E8
:100840002094047F35800C2095047F388005209605
:10085000057F30120A5AD291C292D291D29020933F
:10086000047F3380132094047F36800C2095047F0E
:100870003980052096057F23120A5AD2927F1E7E68
:070880000012094402080008
:060A0100D2B47F057E0067
:100A0700E4FDFCC3ED9FEC9E50070DBD00010C807B
:010A1700F2EC
:010A180022BB
:0F0A1900D2B4D2B3120A03C2B3120A07C2B42274
:0F0A2800C2B4C2B3120A03D2B4120A07D2B32265
:02090F00AB0734
:10091100E4FAEB30E703D38001C392B3120A01C2B8
:10092100B4EB25E0FB0ABA08E9D2B3D2B420B3FD97
:09093100C2B47F057E00020A0732
:10096400E4FBFA120A03D2B4120A07A2B39200EB10
:1009740025E0FBA200E4334203C2B40ABA08E4D27D
:08098400B3120A01C2B4AF0373
:01098C002248
:03000000020A44AD
:0C0A4400787FE4F6D8FD75812002088759
:1009E800BB010689828A83E0225002E722BBFE020D
:0909F800E32289828A83E4932240
:00000001FF
