:060C430054696D653A00E2
:1009F100750BFF120B8E7BFF7A0C7943120B697515
:100A01000F0075100075110975120075130075142A
:100A11000A7B007A007908120901E50A650B600C6E
:100A2100AB0AAD09AF081209A5850A0B7F017E004B
:050A3100120B4980CA10
:100B8E007F38120C397F0C120C397F01120C397F11
:0B0B9E00147E00120B497F80020C390E
:0A0B3F00C2B18FA0D2B27F027E0087
:100B4900E4FDFCC3ED9FEC9E5015E4FBFA0BBB00E2
:0F0B5900010ABA04F8BBFBF50DBD00010C80E4E6
:010B6800226A
:0A0C3900C2B0120B3FC2B2020B4919
:070BEF0075F00A842430FFB9
:0A0BF600D2B0120B3FC2B2020B494D
:100B69008B0C8A0D890EAB0CAA0DA90E1208876091
:100B790013050EE50E7002050D14F9120887FF1210
:050B89000BF680E222E2
:1009A5008F0C8D0DA9037FC0120C39E50C120BEFCE
:1009B500E50C75F00A84E5F02430FF120BF67F3A5A
:1009C500120BF6E50D120BEFE50D75F00A84E5F057
:1009D5002430FF120BF67F3A120BF6E9120BEFE902
:0C09E50075F00A84E5F02430FF020BF6E8
:100BA9004C454420537461747573004C4544204F7F
:0B0BB9004E20004C4544204F464600F3
:100ADF007F01120C397BFF7A0B79A9120B69C29037
:100AEF007FC0120C3920910DD2907BFF7A0B79B415
:100AFF00120B6980EBC2907BFF7A0B79BC120B69EA
:020B0F0080DE86
:10080000D292D291D290D296D295D294D293C290D3
:10081000D292D2912093047F3180132094047F34AC
:10082000800C2095047F3780052096057F2A120BC7
:10083000F6D290C291D292D2902093047F3280134C
:100840002094047F35800C2095047F388005209605
:10085000057F30120BF6D291C292D291D2902093A2
:10086000047F3380132094047F36800C2095047F0E
:100870003980052096057F23120BF6D2927F1E7ECB
:0708800000120B4902080001
:060BC40092B47F057E00E3
:100BCA00E4FDFCC3ED9FEC9E50070DBD00010C80B7
:010BDA00F228
:010BDB0022F7
:0F0C0000D2B3D2B4120BC6C2B4120BCAC2B32203
:0F0C0F00C2B3C2B4120BC6D2B3120BCAD2B422F4
:020AAC00AB0796
:100AAE00E4FAEB30E703D38001C3120BC4D2B312C6
:100ABE000BCAC2B3EB25E0FB0ABA08E6D2B4D2B336
:100ACE00120BC6A2B4E433C2B370037F01227F00BF
:010ADE0022F5
:100A7600E4FBD2B4FAD2B3120BC6EB25E0FB30B4DA
:100A860003430301C2B3120BC60ABA08E8300003D7
:100A9600C38001D3120BC4D2B3120BCAC2B3D2B4F1
:050AA600120BCAAF03B2
:010AAB002228
:080A36008F158B168A17891831
:100A3E00120C007FA0120AACAF15120AACE4F51A24
:100A4E00E51AC395195017AB16AA17A918851A825D
:100A5E007583001208A0FF120AAC051A80E2120C70
:080A6E000F7FF47E01020BCAA8
:080955008F218B228A238924E3
:10095D00120C007FA0120AACAF21120AAC120C00CF
:10096D007FA1120AACE4F526E526C395255026E5B0
:10097D002514FFE526C39F50028001C39200120A81
:10098D0076AB22AA23A924852682758300EF12084F
:08099D00DF052680D3020C0FD8
:100BDC00EF75F00A84C454F0FEEF75F00A84E5F06A
:030BEC004EFF2297
:0F0C1E00EFC4540F75F00AA4FEEF540F2EFF22FF
:100B11008F1B8D1C8B1D120C007FD0120AACE4FFC1
:100B2100120AACAF1D120BDC120AACAF1C120BDCAB
:0E0B3100120AACAF1B120BDC120AAC020C0F46
:100901008B0C8A0D890E120C007FD0120AACE4FF09
:10091100120AAC120C007FD1120AACD200120A7674
:10092100120C1EAB12AA13A914EF1208CDD2001299
:100931000A76120C1EAB0FAA10A911EF1208CDC234
:1009410000120A76120C1EAB0CAA0DA90EEF1208AA
:04095100CD020C0FB8
:03000000020C2DC2
:0C0C2D00787FE4F6D8FD7581260209F1FD
:10088700BB010689828A83E0225002E722BBFE026F
:09089700E32289828A83E49322A2
:1008A000BB010CE58229F582E5833AF583E022500D
:1008B00006E92582F8E622BBFE06E92582F8E22257
:0D08C000E58229F582E5833AF583E4932271
:1008CD00BB010689828A83F0225002F722BBFE010A
:0208DD00F32204
:1008DF00F8BB010DE58229F582E5833AF583E8F04F
:1008EF00225006E92582C8F622BBFE05E92582C8FB
:0208FF00F222E3
:00000001FF
